{
  "address": "0xe2FFD738D8b63fa7271c1A3ed4b80A263539C3B5",
  "abi": [
    {
      "inputs": [
        {
          "internalType": "address",
          "name": "_nameRegistry",
          "type": "address"
        }
      ],
      "stateMutability": "nonpayable",
      "type": "constructor"
    },
    {
      "inputs": [
        {
          "internalType": "uint256",
          "name": "tokenId",
          "type": "uint256"
        }
      ],
      "name": "accept",
      "outputs": [],
      "stateMutability": "nonpayable",
      "type": "function"
    },
    {
      "inputs": [
        {
          "internalType": "uint256",
          "name": "tokenId",
          "type": "uint256"
        },
        {
          "internalType": "string",
          "name": "metadata",
          "type": "string"
        }
      ],
      "name": "acceptToOpenBid",
      "outputs": [],
      "stateMutability": "nonpayable",
      "type": "function"
    },
    {
      "inputs": [
        {
          "internalType": "uint256",
          "name": "",
          "type": "uint256"
        }
      ],
      "name": "accepted",
      "outputs": [
        {
          "internalType": "string",
          "name": "",
          "type": "string"
        }
      ],
      "stateMutability": "view",
      "type": "function"
    },
    {
      "inputs": [
        {
          "internalType": "uint256",
          "name": "tokenId",
          "type": "uint256"
        }
      ],
      "name": "acceptedContent",
      "outputs": [
        {
          "internalType": "string",
          "name": "",
          "type": "string"
        }
      ],
      "stateMutability": "view",
      "type": "function"
    },
    {
      "inputs": [],
      "name": "adPoolAddress",
      "outputs": [
        {
          "internalType": "address",
          "name": "",
          "type": "address"
        }
      ],
      "stateMutability": "view",
      "type": "function"
    },
    {
      "inputs": [
        {
          "internalType": "uint256",
          "name": "",
          "type": "uint256"
        },
        {
          "internalType": "uint256",
          "name": "",
          "type": "uint256"
        }
      ],
      "name": "deniedReasons",
      "outputs": [
        {
          "internalType": "string",
          "name": "reason",
          "type": "string"
        },
        {
          "internalType": "bool",
          "name": "offensive",
          "type": "bool"
        }
      ],
      "stateMutability": "view",
      "type": "function"
    },
    {
      "inputs": [
        {
          "internalType": "uint256",
          "name": "tokenId",
          "type": "uint256"
        },
        {
          "internalType": "string",
          "name": "reason",
          "type": "string"
        },
        {
          "internalType": "bool",
          "name": "offensive",
          "type": "bool"
        }
      ],
      "name": "denyProposal",
      "outputs": [],
      "stateMutability": "nonpayable",
      "type": "function"
    },
    {
      "inputs": [],
      "name": "englishAuctionAddress",
      "outputs": [
        {
          "internalType": "address",
          "name": "",
          "type": "address"
        }
      ],
      "stateMutability": "view",
      "type": "function"
    },
    {
      "inputs": [],
      "name": "eventEmitterAddress",
      "outputs": [
        {
          "internalType": "address",
          "name": "",
          "type": "address"
        }
      ],
      "stateMutability": "view",
      "type": "function"
    },
    {
      "inputs": [],
      "name": "mediaFactoryAddress",
      "outputs": [
        {
          "internalType": "address",
          "name": "",
          "type": "address"
        }
      ],
      "stateMutability": "view",
      "type": "function"
    },
    {
      "inputs": [],
      "name": "mediaRegistryAddress",
      "outputs": [
        {
          "internalType": "address",
          "name": "",
          "type": "address"
        }
      ],
      "stateMutability": "view",
      "type": "function"
    },
    {
      "inputs": [],
      "name": "nameRegistryAddress",
      "outputs": [
        {
          "internalType": "address",
          "name": "",
          "type": "address"
        }
      ],
      "stateMutability": "view",
      "type": "function"
    },
    {
      "inputs": [],
      "name": "offerBidAddress",
      "outputs": [
        {
          "internalType": "address",
          "name": "",
          "type": "address"
        }
      ],
      "stateMutability": "view",
      "type": "function"
    },
    {
      "inputs": [],
      "name": "openBidAddress",
      "outputs": [
        {
          "internalType": "address",
          "name": "",
          "type": "address"
        }
      ],
      "stateMutability": "view",
      "type": "function"
    },
    {
      "inputs": [],
      "name": "owner",
      "outputs": [
        {
          "internalType": "address",
          "name": "",
          "type": "address"
        }
      ],
      "stateMutability": "view",
      "type": "function"
    },
    {
      "inputs": [],
      "name": "proposalReviewAddress",
      "outputs": [
        {
          "internalType": "address",
          "name": "",
          "type": "address"
        }
      ],
      "stateMutability": "view",
      "type": "function"
    },
    {
      "inputs": [
        {
          "internalType": "uint256",
          "name": "tokenId",
          "type": "uint256"
        },
        {
          "internalType": "string",
          "name": "metadata",
          "type": "string"
        },
        {
          "internalType": "address",
          "name": "msgSender",
          "type": "address"
        }
      ],
      "name": "propose",
      "outputs": [],
      "stateMutability": "nonpayable",
      "type": "function"
    },
    {
      "inputs": [
        {
          "internalType": "uint256",
          "name": "",
          "type": "uint256"
        }
      ],
      "name": "proposed",
      "outputs": [
        {
          "internalType": "string",
          "name": "content",
          "type": "string"
        },
        {
          "internalType": "address",
          "name": "proposer",
          "type": "address"
        }
      ],
      "stateMutability": "view",
      "type": "function"
    },
    {
      "inputs": [
        {
          "internalType": "uint256",
          "name": "tokenId",
          "type": "uint256"
        }
      ],
      "name": "proposer",
      "outputs": [
        {
          "internalType": "address",
          "name": "",
          "type": "address"
        }
      ],
      "stateMutability": "view",
      "type": "function"
    },
    {
      "inputs": [],
      "name": "vaultAddress",
      "outputs": [
        {
          "internalType": "address",
          "name": "",
          "type": "address"
        }
      ],
      "stateMutability": "view",
      "type": "function"
    }
  ],
  "transactionHash": "0xf62158222985d53b0f652312aa8ec7ca1933779ffcc90996c05e638bad644d93",
  "args": [
    "0xA21f44Ad2751A5020dBff35f813D90C18f9986b7"
  ],
  "solcInputHash": "2567d620e066e33c4c52999fb777c2a6",
  "bytecode": "0x608060405234801561001057600080fd5b5060405161138d38038061138d83398101604081905261002f91610050565b600080546001600160a01b0319166001600160a01b03831617905550610080565b60006020828403121561006257600080fd5b81516001600160a01b038116811461007957600080fd5b9392505050565b6112fe8061008f6000396000f3fe608060405234801561001057600080fd5b50600436106100fc5760003560e01c80630106d8eb1461010157806313c1f2781461011f57806319b05f49146101345780632231c1eb1461014757806327b7a2f51461014f578063430bf08a1461016057806358ba1bb81461016857806365d13a90146101895780636a58767e146101aa5780637cf175fb146101b2578063897615e6146101ba5780638da5cb5b146101e75780638f6059d6146101ef578063bd365642146101f7578063be25d96314610217578063c9cd71b51461022a578063e2f5fc7814610232578063f07262911461023a578063f19b827314610242578063fb772f4b14610255575b600080fd5b610109610268565b6040516101169190610f20565b60405180910390f35b61013261012d366004610fd6565b610316565b005b610132610142366004611035565b61054f565b6101096107a9565b6000546001600160a01b0316610109565b6101096107da565b61017b610176366004611035565b610809565b60405161011692919061109b565b61019c6101973660046110c5565b6108b6565b6040516101169291906110e7565b610109610982565b6101096109b9565b6101096101c8366004611035565b600090815260016020819052604090912001546001600160a01b031690565b6101096109eb565b610109610a3f565b61020a610205366004611035565b610a75565b604051610116919061110b565b610132610225366004611125565b610b17565b610109610b77565b610109610ba7565b610109610bdf565b61020a610250366004611035565b610c15565b610132610263366004611183565b610caf565b600080546040516d22b733b634b9b420bab1ba34b7b760911b60208201526001600160a01b0390911690638eaa6ac090602e015b604051602081830303815290604052805190602001206040518263ffffffff1660e01b81526004016102d091815260200190565b602060405180830381865afa1580156102ed573d6000803e3d6000fd5b505050506040513d601f19601f8201168201806040525081019061031191906111d2565b905090565b6000610320610e73565b6001600160a01b03166314afd79e336040518263ffffffff1660e01b815260040161034b9190610f20565b602060405180830381865afa158015610368573d6000803e3d6000fd5b505050506040513d601f19601f8201168201806040525081019061038c91906111d2565b6001600160a01b031614156103bc5760405162461bcd60e51b81526004016103b3906111ef565b60405180910390fd5b600083815260016020526040812080546103d59061120e565b80601f01602080910402602001604051908101604052809291908181526020018280546104019061120e565b801561044e5780601f106104235761010080835404028352916020019161044e565b820191906000526020600020905b81548152906001019060200180831161043157829003601f168201915b505050505090508051600014156104775760405162461bcd60e51b81526004016103b390611249565b600084815260026020818152604080842081518083019092528782528615158284015280546001810182559085529382902081518051929590940201926104c2928492910190610e87565b50602091909101516001909101805460ff19169115159190911790556104e6610e7d565b6001600160a01b0316633ebf7371858386866040518563ffffffff1660e01b81526004016105179493929190611268565b600060405180830381600087803b15801561053157600080fd5b505af1158015610545573d6000803e3d6000fd5b5050505050505050565b6000610559610e73565b6001600160a01b03166314afd79e336040518263ffffffff1660e01b81526004016105849190610f20565b602060405180830381865afa1580156105a1573d6000803e3d6000fd5b505050506040513d601f19601f820116820180604052508101906105c591906111d2565b6001600160a01b031614156105ec5760405162461bcd60e51b81526004016103b3906111ef565b600081815260016020526040812080546106059061120e565b80601f01602080910402602001604051908101604052809291908181526020018280546106319061120e565b801561067e5780601f106106535761010080835404028352916020019161067e565b820191906000526020600020905b81548152906001019060200180831161066157829003601f168201915b505050505090508051600014156106a75760405162461bcd60e51b81526004016103b390611249565b600082815260036020908152604090912082516106c692840190610e87565b50604080516060810182526000818301818152825284815260016020818152938220808201546001600160a01b03168585015291869052835281518051929391926107149284920190610e87565b5060209190910151600190910180546001600160a01b0319166001600160a01b03909216919091179055610746610e7d565b6001600160a01b031663746f1b2083836040518363ffffffff1660e01b81526004016107739291906112a7565b600060405180830381600087803b15801561078d57600080fd5b505af11580156107a1573d6000803e3d6000fd5b505050505050565b600080546040516613dc195b909a5960ca1b60208201526001600160a01b0390911690638eaa6ac09060270161029c565b600080546040516415985d5b1d60da1b60208201526001600160a01b0390911690638eaa6ac09060250161029c565b6001602052600090815260409020805481906108249061120e565b80601f01602080910402602001604051908101604052809291908181526020018280546108509061120e565b801561089d5780601f106108725761010080835404028352916020019161089d565b820191906000526020600020905b81548152906001019060200180831161088057829003601f168201915b505050600190930154919250506001600160a01b031682565b600260205281600052604060002081815481106108d257600080fd5b9060005260206000209060020201600091509150508060000180546108f69061120e565b80601f01602080910402602001604051908101604052809291908181526020018280546109229061120e565b801561096f5780601f106109445761010080835404028352916020019161096f565b820191906000526020600020905b81548152906001019060200180831161095257829003601f168201915b5050506001909301549192505060ff1682565b600080546040516c4d65646961526567697374727960981b60208201526001600160a01b0390911690638eaa6ac090602d0161029c565b600080546040516713d999995c909a5960c21b60208201526001600160a01b0390911690638eaa6ac09060280161029c565b60008060009054906101000a90046001600160a01b03166001600160a01b031663d5f394886040518163ffffffff1660e01b8152600401602060405180830381865afa1580156102ed573d6000803e3d6000fd5b600080546040516b4d65646961466163746f727960a01b60208201526001600160a01b0390911690638eaa6ac090602c0161029c565b6000818152600360205260409020805460609190610a929061120e565b80601f0160208091040260200160405190810160405280929190818152602001828054610abe9061120e565b8015610b0b5780601f10610ae057610100808354040283529160200191610b0b565b820191906000526020600020905b815481529060010190602001808311610aee57829003601f168201915b50505050509050919050565b610b1f6107a9565b6001600160a01b0316336001600160a01b031614610b4f5760405162461bcd60e51b81526004016103b3906111ef565b60008281526003602090815260409091208251610b6e92840190610e87565b50610746610e7d565b60008054604051651059141bdbdb60d21b60208201526001600160a01b0390911690638eaa6ac09060260161029c565b600080546040516d50726f706f73616c52657669657760901b60208201526001600160a01b0390911690638eaa6ac090602e0161029c565b600080546040516b22bb32b73a22b6b4ba3a32b960a11b60208201526001600160a01b0390911690638eaa6ac090602c0161029c565b60036020526000908152604090208054610c2e9061120e565b80601f0160208091040260200160405190810160405280929190818152602001828054610c5a9061120e565b8015610ca75780601f10610c7c57610100808354040283529160200191610ca7565b820191906000526020600020905b815481529060010190602001808311610c8a57829003601f168201915b505050505081565b6000610cb9610e73565b6001600160a01b03166314afd79e336040518263ffffffff1660e01b8152600401610ce49190610f20565b602060405180830381865afa158015610d01573d6000803e3d6000fd5b505050506040513d601f19601f82011682018060405250810190610d2591906111d2565b6001600160a01b03161415610d4c5760405162461bcd60e51b81526004016103b3906111ef565b60008381526003602052604090208054610d659061120e565b159050610d9c5760405162461bcd60e51b815260206004820152600560248201526425a218999960d91b60448201526064016103b3565b6040805180820182528381526001600160a01b038316602080830191909152600086815260018252929092208151805192939192610ddd9284920190610e87565b5060209190910151600190910180546001600160a01b0319166001600160a01b03909216919091179055610e0f610e7d565b6001600160a01b0316635bcefb5384846040518363ffffffff1660e01b8152600401610e3c9291906112a7565b600060405180830381600087803b158015610e5657600080fd5b505af1158015610e6a573d6000803e3d6000fd5b50505050505050565b6000610311610982565b6000610311610bdf565b828054610e939061120e565b90600052602060002090601f016020900481019282610eb55760008555610efb565b82601f10610ece57805160ff1916838001178555610efb565b82800160010185558215610efb579182015b82811115610efb578251825591602001919060010190610ee0565b50610f07929150610f0b565b5090565b5b80821115610f075760008155600101610f0c565b6001600160a01b0391909116815260200190565b634e487b7160e01b600052604160045260246000fd5b600082601f830112610f5b57600080fd5b81356001600160401b0380821115610f7557610f75610f34565b604051601f8301601f19908116603f01168101908282118183101715610f9d57610f9d610f34565b81604052838152866020858801011115610fb657600080fd5b836020870160208301376000602085830101528094505050505092915050565b600080600060608486031215610feb57600080fd5b8335925060208401356001600160401b0381111561100857600080fd5b61101486828701610f4a565b9250506040840135801515811461102a57600080fd5b809150509250925092565b60006020828403121561104757600080fd5b5035919050565b6000815180845260005b8181101561107457602081850181015186830182015201611058565b81811115611086576000602083870101525b50601f01601f19169290920160200192915050565b6040815260006110ae604083018561104e565b905060018060a01b03831660208301529392505050565b600080604083850312156110d857600080fd5b50508035926020909101359150565b6040815260006110fa604083018561104e565b905082151560208301529392505050565b60208152600061111e602083018461104e565b9392505050565b6000806040838503121561113857600080fd5b8235915060208301356001600160401b0381111561115557600080fd5b61116185828601610f4a565b9150509250929050565b6001600160a01b038116811461118057600080fd5b50565b60008060006060848603121561119857600080fd5b8335925060208401356001600160401b038111156111b557600080fd5b6111c186828701610f4a565b925050604084013561102a8161116b565b6000602082840312156111e457600080fd5b815161111e8161116b565b6020808252600590820152644b4430313160d81b604082015260600190565b600181811c9082168061122257607f821691505b6020821081141561124357634e487b7160e01b600052602260045260246000fd5b50919050565b60208082526005908201526404b443133360dc1b604082015260600190565b848152608060208201526000611281608083018661104e565b8281036040840152611293818661104e565b915050821515606083015295945050505050565b8281526040602082015260006112c0604083018461104e565b94935050505056fea2646970667358221220fd84e08250e8ac8e22d9febfcf00b39e59fbdef16a2968b0dd979d3fd4b0370364736f6c634300080a0033",
  "devdoc": {
    "kind": "dev",
    "methods": {
      "accept(uint256)": {
        "details": "Accepts the proposal.",
        "params": {
          "tokenId": "uint256 of the token ID"
        }
      },
      "acceptToOpenBid(uint256,string)": {
        "details": "Accepts the best proposal for an open bidding.",
        "params": {
          "metadata": "string of the proposal metadata",
          "tokenId": "uint256 of the token ID"
        }
      },
      "acceptedContent(uint256)": {
        "details": "Returns the proposal content of the token.",
        "params": {
          "tokenId": "uint256 of the token ID"
        }
      },
      "adPoolAddress()": {
        "details": "Gets the address of AdPool."
      },
      "denyProposal(uint256,string,bool)": {
        "details": "Denies the submitted proposal, mentioning what is the problem.",
        "params": {
          "offensive": "bool if the content would offend somebody",
          "reason": "string of the reason why it is rejected",
          "tokenId": "uint256 of the token ID"
        }
      },
      "englishAuctionAddress()": {
        "details": "Gets the address of EnglishAuction."
      },
      "eventEmitterAddress()": {
        "details": "Gets the address of EventEmitter."
      },
      "mediaFactoryAddress()": {
        "details": "Gets the address of MediaFactory."
      },
      "mediaRegistryAddress()": {
        "details": "Gets the address of MediaRegistry."
      },
      "nameRegistryAddress()": {
        "details": "Gets the address of NameRegistry"
      },
      "offerBidAddress()": {
        "details": "Gets the address of OfferBid."
      },
      "openBidAddress()": {
        "details": "Gets the address of OpenBid."
      },
      "owner()": {
        "details": "Gets the owner address."
      },
      "proposalReviewAddress()": {
        "details": "Gets the address of ProposalReview."
      },
      "propose(uint256,string,address)": {
        "details": "Proposes the metadata to the token you bought.      Users can propose many times as long as it is accepted.",
        "params": {
          "metadata": "string of the proposal metadata",
          "msgSender": "address of the msg.sender",
          "tokenId": "uint256 of the token ID"
        }
      },
      "proposer(uint256)": {
        "details": "Returns the proposer of the token.",
        "params": {
          "tokenId": "uint256 of the token ID"
        }
      },
      "vaultAddress()": {
        "details": "Gets the address of Vault."
      }
    },
    "stateVariables": {
      "accepted": {
        "details": "Maps a tokenId with the content metadata."
      },
      "deniedReasons": {
        "details": "Maps a tokenId with denied reasons."
      },
      "proposed": {
        "details": "Maps a tokenId with the proposal content."
      }
    },
    "version": 1
  },
  "userdoc": {
    "kind": "user",
    "methods": {},
    "version": 1
  },
  "storageLayout": {
    "storage": [
      {
        "astId": 1889,
        "contract": "contracts/peripheries/ProposalReview.sol:ProposalReview",
        "label": "_nameRegistry",
        "offset": 0,
        "slot": "0",
        "type": "t_contract(INameRegistry)3999"
      },
      {
        "astId": 7228,
        "contract": "contracts/peripheries/ProposalReview.sol:ProposalReview",
        "label": "proposed",
        "offset": 0,
        "slot": "1",
        "type": "t_mapping(t_uint256,t_struct(Proposal)4122_storage)"
      },
      {
        "astId": 7235,
        "contract": "contracts/peripheries/ProposalReview.sol:ProposalReview",
        "label": "deniedReasons",
        "offset": 0,
        "slot": "2",
        "type": "t_mapping(t_uint256,t_array(t_struct(Denied)4117_storage)dyn_storage)"
      },
      {
        "astId": 7240,
        "contract": "contracts/peripheries/ProposalReview.sol:ProposalReview",
        "label": "accepted",
        "offset": 0,
        "slot": "3",
        "type": "t_mapping(t_uint256,t_string_storage)"
      }
    ],
    "types": {
      "t_address": {
        "encoding": "inplace",
        "label": "address",
        "numberOfBytes": "20"
      },
      "t_array(t_struct(Denied)4117_storage)dyn_storage": {
        "base": "t_struct(Denied)4117_storage",
        "encoding": "dynamic_array",
        "label": "struct IProposalReview.Denied[]",
        "numberOfBytes": "32"
      },
      "t_bool": {
        "encoding": "inplace",
        "label": "bool",
        "numberOfBytes": "1"
      },
      "t_contract(INameRegistry)3999": {
        "encoding": "inplace",
        "label": "contract INameRegistry",
        "numberOfBytes": "20"
      },
      "t_mapping(t_uint256,t_array(t_struct(Denied)4117_storage)dyn_storage)": {
        "encoding": "mapping",
        "key": "t_uint256",
        "label": "mapping(uint256 => struct IProposalReview.Denied[])",
        "numberOfBytes": "32",
        "value": "t_array(t_struct(Denied)4117_storage)dyn_storage"
      },
      "t_mapping(t_uint256,t_string_storage)": {
        "encoding": "mapping",
        "key": "t_uint256",
        "label": "mapping(uint256 => string)",
        "numberOfBytes": "32",
        "value": "t_string_storage"
      },
      "t_mapping(t_uint256,t_struct(Proposal)4122_storage)": {
        "encoding": "mapping",
        "key": "t_uint256",
        "label": "mapping(uint256 => struct IProposalReview.Proposal)",
        "numberOfBytes": "32",
        "value": "t_struct(Proposal)4122_storage"
      },
      "t_string_storage": {
        "encoding": "bytes",
        "label": "string",
        "numberOfBytes": "32"
      },
      "t_struct(Denied)4117_storage": {
        "encoding": "inplace",
        "label": "struct IProposalReview.Denied",
        "members": [
          {
            "astId": 4114,
            "contract": "contracts/peripheries/ProposalReview.sol:ProposalReview",
            "label": "reason",
            "offset": 0,
            "slot": "0",
            "type": "t_string_storage"
          },
          {
            "astId": 4116,
            "contract": "contracts/peripheries/ProposalReview.sol:ProposalReview",
            "label": "offensive",
            "offset": 0,
            "slot": "1",
            "type": "t_bool"
          }
        ],
        "numberOfBytes": "64"
      },
      "t_struct(Proposal)4122_storage": {
        "encoding": "inplace",
        "label": "struct IProposalReview.Proposal",
        "members": [
          {
            "astId": 4119,
            "contract": "contracts/peripheries/ProposalReview.sol:ProposalReview",
            "label": "content",
            "offset": 0,
            "slot": "0",
            "type": "t_string_storage"
          },
          {
            "astId": 4121,
            "contract": "contracts/peripheries/ProposalReview.sol:ProposalReview",
            "label": "proposer",
            "offset": 0,
            "slot": "1",
            "type": "t_address"
          }
        ],
        "numberOfBytes": "64"
      },
      "t_uint256": {
        "encoding": "inplace",
        "label": "uint256",
        "numberOfBytes": "32"
      }
    }
  }
}