{
  "address": "0xf9800fE959AbC82C2BAE21Ee66305835c8Ffc190",
  "abi": [
    {
      "inputs": [
        {
          "internalType": "uint256",
          "name": "newFromTimestamp",
          "type": "uint256"
        },
        {
          "internalType": "uint256",
          "name": "currentToTimestamp",
          "type": "uint256"
        }
      ],
      "name": "isFuture",
      "outputs": [
        {
          "internalType": "bool",
          "name": "",
          "type": "bool"
        }
      ],
      "stateMutability": "pure",
      "type": "function"
    },
    {
      "inputs": [
        {
          "internalType": "uint256",
          "name": "newFromTimestamp",
          "type": "uint256"
        },
        {
          "internalType": "uint256",
          "name": "newToTimestamp",
          "type": "uint256"
        },
        {
          "internalType": "uint256",
          "name": "currentFromTimestamp",
          "type": "uint256"
        },
        {
          "internalType": "uint256",
          "name": "currentToTimestamp",
          "type": "uint256"
        }
      ],
      "name": "isOverlapped",
      "outputs": [
        {
          "internalType": "bool",
          "name": "",
          "type": "bool"
        }
      ],
      "stateMutability": "pure",
      "type": "function"
    },
    {
      "inputs": [
        {
          "internalType": "uint256",
          "name": "newToTimestamp",
          "type": "uint256"
        },
        {
          "internalType": "uint256",
          "name": "currentFromTimestamp",
          "type": "uint256"
        }
      ],
      "name": "isPast",
      "outputs": [
        {
          "internalType": "bool",
          "name": "",
          "type": "bool"
        }
      ],
      "stateMutability": "pure",
      "type": "function"
    }
  ],
  "transactionHash": "0x426d23cd7b92847ff1abc84d1e574a5a202859aa7e590b418b3544a87af5cce7",
  "args": [],
  "solcInputHash": "2567d620e066e33c4c52999fb777c2a6",
  "bytecode": "0x61012961003a600b82828239805160001a60731461002d57634e487b7160e01b600052600060045260246000fd5b30600052607381538281f3fe730000000000000000000000000000000000000000301460806040526004361060475760003560e01c8063313621eb14604c578063863c5a0214606f5780638cb44d3e14607e575b600080fd5b605b605736600460a1565b1190565b604051901515815260200160405180910390f35b605b607a36600460a1565b1090565b605b608936600460c2565b600083831180609757508482105b1595945050505050565b6000806040838503121560b357600080fd5b50508035926020909101359150565b6000806000806080858703121560d757600080fd5b505082359460208401359450604084013593606001359250905056fea2646970667358221220ef57fdd1015f2ac1384750f5ba6a155a04b558cdfa70a247f955ef4ddd30bf4164736f6c634300080a0033",
  "devdoc": {
    "kind": "dev",
    "methods": {},
    "version": 1
  },
  "userdoc": {
    "kind": "user",
    "methods": {},
    "version": 1
  },
  "storageLayout": {
    "storage": [],
    "types": null
  }
}